{
  "_format": "hh-sol-artifact-1",
  "contractName": "NebulaToken",
  "sourceName": "contracts/NebulaToken.sol",
  "abi": [
    {
      "inputs": [],
      "stateMutability": "nonpayable",
      "type": "constructor"
    },
    {
      "anonymous": false,
      "inputs": [
        {
          "indexed": true,
          "internalType": "address",
          "name": "owner",
          "type": "address"
        },
        {
          "indexed": true,
          "internalType": "address",
          "name": "spender",
          "type": "address"
        },
        {
          "indexed": false,
          "internalType": "uint256",
          "name": "value",
          "type": "uint256"
        }
      ],
      "name": "Approval",
      "type": "event"
    },
    {
      "anonymous": false,
      "inputs": [
        {
          "indexed": true,
          "internalType": "address",
          "name": "from",
          "type": "address"
        },
        {
          "indexed": true,
          "internalType": "address",
          "name": "to",
          "type": "address"
        },
        {
          "indexed": false,
          "internalType": "uint256",
          "name": "value",
          "type": "uint256"
        }
      ],
      "name": "Transfer",
      "type": "event"
    },
    {
      "stateMutability": "nonpayable",
      "type": "fallback"
    },
    {
      "inputs": [
        {
          "internalType": "address",
          "name": "owner",
          "type": "address"
        },
        {
          "internalType": "address",
          "name": "spender",
          "type": "address"
        }
      ],
      "name": "allowance",
      "outputs": [
        {
          "internalType": "uint256",
          "name": "",
          "type": "uint256"
        }
      ],
      "stateMutability": "view",
      "type": "function"
    },
    {
      "inputs": [
        {
          "internalType": "address",
          "name": "spender",
          "type": "address"
        },
        {
          "internalType": "uint256",
          "name": "amount",
          "type": "uint256"
        }
      ],
      "name": "approve",
      "outputs": [
        {
          "internalType": "bool",
          "name": "",
          "type": "bool"
        }
      ],
      "stateMutability": "nonpayable",
      "type": "function"
    },
    {
      "inputs": [
        {
          "internalType": "address",
          "name": "account",
          "type": "address"
        }
      ],
      "name": "balanceOf",
      "outputs": [
        {
          "internalType": "uint256",
          "name": "",
          "type": "uint256"
        }
      ],
      "stateMutability": "view",
      "type": "function"
    },
    {
      "inputs": [
        {
          "internalType": "address",
          "name": "account",
          "type": "address"
        },
        {
          "internalType": "uint256",
          "name": "amount",
          "type": "uint256"
        }
      ],
      "name": "burnToken",
      "outputs": [],
      "stateMutability": "nonpayable",
      "type": "function"
    },
    {
      "inputs": [],
      "name": "decimals",
      "outputs": [
        {
          "internalType": "uint8",
          "name": "",
          "type": "uint8"
        }
      ],
      "stateMutability": "view",
      "type": "function"
    },
    {
      "inputs": [
        {
          "internalType": "address",
          "name": "spender",
          "type": "address"
        },
        {
          "internalType": "uint256",
          "name": "subtractedValue",
          "type": "uint256"
        }
      ],
      "name": "decreaseAllowance",
      "outputs": [
        {
          "internalType": "bool",
          "name": "",
          "type": "bool"
        }
      ],
      "stateMutability": "nonpayable",
      "type": "function"
    },
    {
      "inputs": [
        {
          "internalType": "address",
          "name": "account",
          "type": "address"
        }
      ],
      "name": "getBalance",
      "outputs": [
        {
          "internalType": "uint256",
          "name": "",
          "type": "uint256"
        }
      ],
      "stateMutability": "view",
      "type": "function"
    },
    {
      "inputs": [],
      "name": "getTotalSupply",
      "outputs": [
        {
          "internalType": "uint256",
          "name": "",
          "type": "uint256"
        }
      ],
      "stateMutability": "view",
      "type": "function"
    },
    {
      "inputs": [
        {
          "internalType": "address",
          "name": "spender",
          "type": "address"
        },
        {
          "internalType": "uint256",
          "name": "addedValue",
          "type": "uint256"
        }
      ],
      "name": "increaseAllowance",
      "outputs": [
        {
          "internalType": "bool",
          "name": "",
          "type": "bool"
        }
      ],
      "stateMutability": "nonpayable",
      "type": "function"
    },
    {
      "inputs": [
        {
          "internalType": "address",
          "name": "to",
          "type": "address"
        },
        {
          "internalType": "uint256",
          "name": "amount",
          "type": "uint256"
        }
      ],
      "name": "mintToken",
      "outputs": [],
      "stateMutability": "nonpayable",
      "type": "function"
    },
    {
      "inputs": [],
      "name": "name",
      "outputs": [
        {
          "internalType": "string",
          "name": "",
          "type": "string"
        }
      ],
      "stateMutability": "view",
      "type": "function"
    },
    {
      "inputs": [],
      "name": "symbol",
      "outputs": [
        {
          "internalType": "string",
          "name": "",
          "type": "string"
        }
      ],
      "stateMutability": "view",
      "type": "function"
    },
    {
      "inputs": [],
      "name": "totalSupply",
      "outputs": [
        {
          "internalType": "uint256",
          "name": "",
          "type": "uint256"
        }
      ],
      "stateMutability": "view",
      "type": "function"
    },
    {
      "inputs": [
        {
          "internalType": "address",
          "name": "to",
          "type": "address"
        },
        {
          "internalType": "uint256",
          "name": "amount",
          "type": "uint256"
        }
      ],
      "name": "transfer",
      "outputs": [
        {
          "internalType": "bool",
          "name": "",
          "type": "bool"
        }
      ],
      "stateMutability": "nonpayable",
      "type": "function"
    },
    {
      "inputs": [
        {
          "internalType": "address",
          "name": "from",
          "type": "address"
        },
        {
          "internalType": "address",
          "name": "to",
          "type": "address"
        },
        {
          "internalType": "uint256",
          "name": "amount",
          "type": "uint256"
        }
      ],
      "name": "transferFrom",
      "outputs": [
        {
          "internalType": "bool",
          "name": "",
          "type": "bool"
        }
      ],
      "stateMutability": "nonpayable",
      "type": "function"
    },
    {
      "inputs": [
        {
          "internalType": "address",
          "name": "from",
          "type": "address"
        },
        {
          "internalType": "address",
          "name": "to",
          "type": "address"
        },
        {
          "internalType": "uint256",
          "name": "amount",
          "type": "uint256"
        }
      ],
      "name": "transferToken",
      "outputs": [],
      "stateMutability": "nonpayable",
      "type": "function"
    }
  ],
  "bytecode": "0x60806040523480156200001157600080fd5b506040518060400160405280600681526020017f4e6562756c6100000000000000000000000000000000000000000000000000008152506040518060400160405280600381526020017f4e424c000000000000000000000000000000000000000000000000000000000081525081600390816200008f919062000324565b508060049081620000a1919062000324565b5050506200040b565b600081519050919050565b7f4e487b7100000000000000000000000000000000000000000000000000000000600052604160045260246000fd5b7f4e487b7100000000000000000000000000000000000000000000000000000000600052602260045260246000fd5b600060028204905060018216806200012c57607f821691505b602082108103620001425762000141620000e4565b5b50919050565b60008190508160005260206000209050919050565b60006020601f8301049050919050565b600082821b905092915050565b600060088302620001ac7fffffffffffffffffffffffffffffffffffffffffffffffffffffffffffffffff826200016d565b620001b886836200016d565b95508019841693508086168417925050509392505050565b6000819050919050565b6000819050919050565b600062000205620001ff620001f984620001d0565b620001da565b620001d0565b9050919050565b6000819050919050565b6200022183620001e4565b6200023962000230826200020c565b8484546200017a565b825550505050565b600090565b6200025062000241565b6200025d81848462000216565b505050565b5b8181101562000285576200027960008262000246565b60018101905062000263565b5050565b601f821115620002d4576200029e8162000148565b620002a9846200015d565b81016020851015620002b9578190505b620002d1620002c8856200015d565b83018262000262565b50505b505050565b600082821c905092915050565b6000620002f960001984600802620002d9565b1980831691505092915050565b6000620003148383620002e6565b9150826002028217905092915050565b6200032f82620000aa565b67ffffffffffffffff8111156200034b576200034a620000b5565b5b62000357825462000113565b6200036482828562000289565b600060209050601f8311600181146200039c576000841562000387578287015190505b62000393858262000306565b86555062000403565b601f198416620003ac8662000148565b60005b82811015620003d657848901518255600182019150602085019450602081019050620003af565b86831015620003f65784890151620003f2601f891682620002e6565b8355505b6001600288020188555050505b505050505050565b611b03806200041b6000396000f3fe608060405234801561001057600080fd5b50600436106101045760003560e01c806395d89b4111610097578063d1df306c11610066578063d1df306c146102d9578063dd62ed3e146102f5578063f5537ede14610325578063f8b2cb4f1461034157610105565b806395d89b411461023d578063a457c2d71461025b578063a9059cbb1461028b578063c4e41b22146102bb57610105565b8063313ce567116100d3578063313ce567146101a357806339509351146101c157806370a08231146101f157806379c650681461022157610105565b806306fdde0314610107578063095ea7b31461012557806318160ddd1461015557806323b872dd1461017357610105565b5b005b61010f610371565b60405161011c9190611030565b60405180910390f35b61013f600480360381019061013a91906110eb565b610403565b60405161014c9190611146565b60405180910390f35b61015d610426565b60405161016a9190611170565b60405180910390f35b61018d6004803603810190610188919061118b565b610430565b60405161019a9190611146565b60405180910390f35b6101ab61045f565b6040516101b891906111fa565b60405180910390f35b6101db60048036038101906101d691906110eb565b610468565b6040516101e89190611146565b60405180910390f35b61020b60048036038101906102069190611215565b61049f565b6040516102189190611170565b60405180910390f35b61023b600480360381019061023691906110eb565b6104e7565b005b610245610524565b6040516102529190611030565b60405180910390f35b610275600480360381019061027091906110eb565b6105b6565b6040516102829190611146565b60405180910390f35b6102a560048036038101906102a091906110eb565b61062d565b6040516102b29190611146565b60405180910390f35b6102c3610650565b6040516102d09190611170565b60405180910390f35b6102f360048036038101906102ee91906110eb565b61067d565b005b61030f600480360381019061030a9190611242565b6106a9565b60405161031c9190611170565b60405180910390f35b61033f600480360381019061033a919061118b565b610730565b005b61035b60048036038101906103569190611215565b610770565b6040516103689190611170565b60405180910390f35b606060038054610380906112b1565b80601f01602080910402602001604051908101604052809291908181526020018280546103ac906112b1565b80156103f95780601f106103ce576101008083540402835291602001916103f9565b820191906000526020600020905b8154815290600101906020018083116103dc57829003601f168201915b5050505050905090565b60008061040e6107a0565b905061041b8185856107a8565b600191505092915050565b6000600254905090565b60008061043b6107a0565b9050610448858285610971565b6104538585856109fd565b60019150509392505050565b60006012905090565b6000806104736107a0565b905061049481858561048585896106a9565b61048f9190611311565b6107a8565b600191505092915050565b60008060008373ffffffffffffffffffffffffffffffffffffffff1673ffffffffffffffffffffffffffffffffffffffff168152602001908152602001600020549050919050565b60006104f161045f565b600a6104fd9190611478565b8261050891906114c3565b90506105148382610c73565b61051e8382610468565b50505050565b606060048054610533906112b1565b80601f016020809104026020016040519081016040528092919081815260200182805461055f906112b1565b80156105ac5780601f10610581576101008083540402835291602001916105ac565b820191906000526020600020905b81548152906001019060200180831161058f57829003601f168201915b5050505050905090565b6000806105c16107a0565b905060006105cf82866106a9565b905083811015610614576040517f08c379a000000000000000000000000000000000000000000000000000000000815260040161060b90611577565b60405180910390fd5b61062182868684036107a8565b60019250505092915050565b6000806106386107a0565b90506106458185856109fd565b600191505092915050565b600061065a61045f565b600a6106669190611478565b61066e610426565b61067891906115c6565b905090565b6106a58261068961045f565b600a6106959190611478565b836106a091906114c3565b610dc9565b5050565b6000600160008473ffffffffffffffffffffffffffffffffffffffff1673ffffffffffffffffffffffffffffffffffffffff16815260200190815260200160002060008373ffffffffffffffffffffffffffffffffffffffff1673ffffffffffffffffffffffffffffffffffffffff16815260200190815260200160002054905092915050565b600061073a61045f565b600a6107469190611478565b8261075191906114c3565b905061075e848483610430565b506107698382610468565b5050505050565b600061077a61045f565b600a6107869190611478565b61078f8361049f565b61079991906115c6565b9050919050565b600033905090565b600073ffffffffffffffffffffffffffffffffffffffff168373ffffffffffffffffffffffffffffffffffffffff1603610817576040517f08c379a000000000000000000000000000000000000000000000000000000000815260040161080e90611669565b60405180910390fd5b600073ffffffffffffffffffffffffffffffffffffffff168273ffffffffffffffffffffffffffffffffffffffff1603610886576040517f08c379a000000000000000000000000000000000000000000000000000000000815260040161087d906116fb565b60405180910390fd5b80600160008573ffffffffffffffffffffffffffffffffffffffff1673ffffffffffffffffffffffffffffffffffffffff16815260200190815260200160002060008473ffffffffffffffffffffffffffffffffffffffff1673ffffffffffffffffffffffffffffffffffffffff168152602001908152602001600020819055508173ffffffffffffffffffffffffffffffffffffffff168373ffffffffffffffffffffffffffffffffffffffff167f8c5be1e5ebec7d5bd14f71427d1e84f3dd0314c0f7b2291e5b200ac8c7c3b925836040516109649190611170565b60405180910390a3505050565b600061097d84846106a9565b90507fffffffffffffffffffffffffffffffffffffffffffffffffffffffffffffffff81146109f757818110156109e9576040517f08c379a00000000000000000000000000000000000000000000000000000000081526004016109e090611767565b60405180910390fd5b6109f684848484036107a8565b5b50505050565b600073ffffffffffffffffffffffffffffffffffffffff168373ffffffffffffffffffffffffffffffffffffffff1603610a6c576040517f08c379a0000000000000000000000000000000000000000000000000000000008152600401610a63906117f9565b60405180910390fd5b600073ffffffffffffffffffffffffffffffffffffffff168273ffffffffffffffffffffffffffffffffffffffff1603610adb576040517f08c379a0000000000000000000000000000000000000000000000000000000008152600401610ad29061188b565b60405180910390fd5b610ae6838383610f96565b60008060008573ffffffffffffffffffffffffffffffffffffffff1673ffffffffffffffffffffffffffffffffffffffff16815260200190815260200160002054905081811015610b6c576040517f08c379a0000000000000000000000000000000000000000000000000000000008152600401610b639061191d565b60405180910390fd5b8181036000808673ffffffffffffffffffffffffffffffffffffffff1673ffffffffffffffffffffffffffffffffffffffff16815260200190815260200160002081905550816000808573ffffffffffffffffffffffffffffffffffffffff1673ffffffffffffffffffffffffffffffffffffffff168152602001908152602001600020600082825401925050819055508273ffffffffffffffffffffffffffffffffffffffff168473ffffffffffffffffffffffffffffffffffffffff167fddf252ad1be2c89b69c2b068fc378daa952ba7f163c4a11628f55a4df523b3ef84604051610c5a9190611170565b60405180910390a3610c6d848484610f9b565b50505050565b600073ffffffffffffffffffffffffffffffffffffffff168273ffffffffffffffffffffffffffffffffffffffff1603610ce2576040517f08c379a0000000000000000000000000000000000000000000000000000000008152600401610cd990611989565b60405180910390fd5b610cee60008383610f96565b8060026000828254610d009190611311565b92505081905550806000808473ffffffffffffffffffffffffffffffffffffffff1673ffffffffffffffffffffffffffffffffffffffff168152602001908152602001600020600082825401925050819055508173ffffffffffffffffffffffffffffffffffffffff16600073ffffffffffffffffffffffffffffffffffffffff167fddf252ad1be2c89b69c2b068fc378daa952ba7f163c4a11628f55a4df523b3ef83604051610db19190611170565b60405180910390a3610dc560008383610f9b565b5050565b600073ffffffffffffffffffffffffffffffffffffffff168273ffffffffffffffffffffffffffffffffffffffff1603610e38576040517f08c379a0000000000000000000000000000000000000000000000000000000008152600401610e2f90611a1b565b60405180910390fd5b610e4482600083610f96565b60008060008473ffffffffffffffffffffffffffffffffffffffff1673ffffffffffffffffffffffffffffffffffffffff16815260200190815260200160002054905081811015610eca576040517f08c379a0000000000000000000000000000000000000000000000000000000008152600401610ec190611aad565b60405180910390fd5b8181036000808573ffffffffffffffffffffffffffffffffffffffff1673ffffffffffffffffffffffffffffffffffffffff1681526020019081526020016000208190555081600260008282540392505081905550600073ffffffffffffffffffffffffffffffffffffffff168373ffffffffffffffffffffffffffffffffffffffff167fddf252ad1be2c89b69c2b068fc378daa952ba7f163c4a11628f55a4df523b3ef84604051610f7d9190611170565b60405180910390a3610f9183600084610f9b565b505050565b505050565b505050565b600081519050919050565b600082825260208201905092915050565b60005b83811015610fda578082015181840152602081019050610fbf565b60008484015250505050565b6000601f19601f8301169050919050565b600061100282610fa0565b61100c8185610fab565b935061101c818560208601610fbc565b61102581610fe6565b840191505092915050565b6000602082019050818103600083015261104a8184610ff7565b905092915050565b600080fd5b600073ffffffffffffffffffffffffffffffffffffffff82169050919050565b600061108282611057565b9050919050565b61109281611077565b811461109d57600080fd5b50565b6000813590506110af81611089565b92915050565b6000819050919050565b6110c8816110b5565b81146110d357600080fd5b50565b6000813590506110e5816110bf565b92915050565b6000806040838503121561110257611101611052565b5b6000611110858286016110a0565b9250506020611121858286016110d6565b9150509250929050565b60008115159050919050565b6111408161112b565b82525050565b600060208201905061115b6000830184611137565b92915050565b61116a816110b5565b82525050565b60006020820190506111856000830184611161565b92915050565b6000806000606084860312156111a4576111a3611052565b5b60006111b2868287016110a0565b93505060206111c3868287016110a0565b92505060406111d4868287016110d6565b9150509250925092565b600060ff82169050919050565b6111f4816111de565b82525050565b600060208201905061120f60008301846111eb565b92915050565b60006020828403121561122b5761122a611052565b5b6000611239848285016110a0565b91505092915050565b6000806040838503121561125957611258611052565b5b6000611267858286016110a0565b9250506020611278858286016110a0565b9150509250929050565b7f4e487b7100000000000000000000000000000000000000000000000000000000600052602260045260246000fd5b600060028204905060018216806112c957607f821691505b6020821081036112dc576112db611282565b5b50919050565b7f4e487b7100000000000000000000000000000000000000000000000000000000600052601160045260246000fd5b600061131c826110b5565b9150611327836110b5565b925082820190508082111561133f5761133e6112e2565b5b92915050565b60008160011c9050919050565b6000808291508390505b600185111561139c57808604811115611378576113776112e2565b5b60018516156113875780820291505b808102905061139585611345565b945061135c565b94509492505050565b6000826113b55760019050611471565b816113c35760009050611471565b81600181146113d957600281146113e357611412565b6001915050611471565b60ff8411156113f5576113f46112e2565b5b8360020a91508482111561140c5761140b6112e2565b5b50611471565b5060208310610133831016604e8410600b84101617156114475782820a905083811115611442576114416112e2565b5b611471565b6114548484846001611352565b9250905081840481111561146b5761146a6112e2565b5b81810290505b9392505050565b6000611483826110b5565b915061148e836111de565b92506114bb7fffffffffffffffffffffffffffffffffffffffffffffffffffffffffffffffff84846113a5565b905092915050565b60006114ce826110b5565b91506114d9836110b5565b92508282026114e7816110b5565b915082820484148315176114fe576114fd6112e2565b5b5092915050565b7f45524332303a2064656372656173656420616c6c6f77616e63652062656c6f7760008201527f207a65726f000000000000000000000000000000000000000000000000000000602082015250565b6000611561602583610fab565b915061156c82611505565b604082019050919050565b6000602082019050818103600083015261159081611554565b9050919050565b7f4e487b7100000000000000000000000000000000000000000000000000000000600052601260045260246000fd5b60006115d1826110b5565b91506115dc836110b5565b9250826115ec576115eb611597565b5b828204905092915050565b7f45524332303a20617070726f76652066726f6d20746865207a65726f2061646460008201527f7265737300000000000000000000000000000000000000000000000000000000602082015250565b6000611653602483610fab565b915061165e826115f7565b604082019050919050565b6000602082019050818103600083015261168281611646565b9050919050565b7f45524332303a20617070726f766520746f20746865207a65726f20616464726560008201527f7373000000000000000000000000000000000000000000000000000000000000602082015250565b60006116e5602283610fab565b91506116f082611689565b604082019050919050565b60006020820190508181036000830152611714816116d8565b9050919050565b7f45524332303a20696e73756666696369656e7420616c6c6f77616e6365000000600082015250565b6000611751601d83610fab565b915061175c8261171b565b602082019050919050565b6000602082019050818103600083015261178081611744565b9050919050565b7f45524332303a207472616e736665722066726f6d20746865207a65726f20616460008201527f6472657373000000000000000000000000000000000000000000000000000000602082015250565b60006117e3602583610fab565b91506117ee82611787565b604082019050919050565b60006020820190508181036000830152611812816117d6565b9050919050565b7f45524332303a207472616e7366657220746f20746865207a65726f206164647260008201527f6573730000000000000000000000000000000000000000000000000000000000602082015250565b6000611875602383610fab565b915061188082611819565b604082019050919050565b600060208201905081810360008301526118a481611868565b9050919050565b7f45524332303a207472616e7366657220616d6f756e742065786365656473206260008201527f616c616e63650000000000000000000000000000000000000000000000000000602082015250565b6000611907602683610fab565b9150611912826118ab565b604082019050919050565b60006020820190508181036000830152611936816118fa565b9050919050565b7f45524332303a206d696e7420746f20746865207a65726f206164647265737300600082015250565b6000611973601f83610fab565b915061197e8261193d565b602082019050919050565b600060208201905081810360008301526119a281611966565b9050919050565b7f45524332303a206275726e2066726f6d20746865207a65726f2061646472657360008201527f7300000000000000000000000000000000000000000000000000000000000000602082015250565b6000611a05602183610fab565b9150611a10826119a9565b604082019050919050565b60006020820190508181036000830152611a34816119f8565b9050919050565b7f45524332303a206275726e20616d6f756e7420657863656564732062616c616e60008201527f6365000000000000000000000000000000000000000000000000000000000000602082015250565b6000611a97602283610fab565b9150611aa282611a3b565b604082019050919050565b60006020820190508181036000830152611ac681611a8a565b905091905056fea26469706673582212209c459b234d651e8513a02c020647ef67c87c2bdc2807b5d34a27f9dd8460ab0064736f6c63430008120033",
  "linkReferences": {},
  "deployedLinkReferences": {}
}