{
  "_format": "hh-sol-artifact-1",
  "contractName": "NebulaToken",
  "sourceName": "contracts/NebulaToken.sol",
  "abi": [
    {
      "inputs": [],
      "stateMutability": "nonpayable",
      "type": "constructor"
    },
    {
      "anonymous": false,
      "inputs": [
        {
          "indexed": true,
          "internalType": "address",
          "name": "owner",
          "type": "address"
        },
        {
          "indexed": true,
          "internalType": "address",
          "name": "spender",
          "type": "address"
        },
        {
          "indexed": false,
          "internalType": "uint256",
          "name": "value",
          "type": "uint256"
        }
      ],
      "name": "Approval",
      "type": "event"
    },
    {
      "anonymous": false,
      "inputs": [
        {
          "indexed": true,
          "internalType": "address",
          "name": "from",
          "type": "address"
        },
        {
          "indexed": true,
          "internalType": "address",
          "name": "to",
          "type": "address"
        },
        {
          "indexed": false,
          "internalType": "uint256",
          "name": "value",
          "type": "uint256"
        }
      ],
      "name": "Transfer",
      "type": "event"
    },
    {
      "stateMutability": "nonpayable",
      "type": "fallback"
    },
    {
      "inputs": [
        {
          "internalType": "address",
          "name": "owner",
          "type": "address"
        },
        {
          "internalType": "address",
          "name": "spender",
          "type": "address"
        }
      ],
      "name": "allowance",
      "outputs": [
        {
          "internalType": "uint256",
          "name": "",
          "type": "uint256"
        }
      ],
      "stateMutability": "view",
      "type": "function"
    },
    {
      "inputs": [
        {
          "internalType": "address",
          "name": "spender",
          "type": "address"
        },
        {
          "internalType": "uint256",
          "name": "amount",
          "type": "uint256"
        }
      ],
      "name": "approve",
      "outputs": [
        {
          "internalType": "bool",
          "name": "",
          "type": "bool"
        }
      ],
      "stateMutability": "nonpayable",
      "type": "function"
    },
    {
      "inputs": [
        {
          "internalType": "address",
          "name": "account",
          "type": "address"
        }
      ],
      "name": "balanceOf",
      "outputs": [
        {
          "internalType": "uint256",
          "name": "",
          "type": "uint256"
        }
      ],
      "stateMutability": "view",
      "type": "function"
    },
    {
      "inputs": [
        {
          "internalType": "address",
          "name": "account",
          "type": "address"
        },
        {
          "internalType": "uint256",
          "name": "amount",
          "type": "uint256"
        }
      ],
      "name": "burnToken",
      "outputs": [],
      "stateMutability": "nonpayable",
      "type": "function"
    },
    {
      "inputs": [],
      "name": "decimals",
      "outputs": [
        {
          "internalType": "uint8",
          "name": "",
          "type": "uint8"
        }
      ],
      "stateMutability": "view",
      "type": "function"
    },
    {
      "inputs": [
        {
          "internalType": "address",
          "name": "spender",
          "type": "address"
        },
        {
          "internalType": "uint256",
          "name": "subtractedValue",
          "type": "uint256"
        }
      ],
      "name": "decreaseAllowance",
      "outputs": [
        {
          "internalType": "bool",
          "name": "",
          "type": "bool"
        }
      ],
      "stateMutability": "nonpayable",
      "type": "function"
    },
    {
      "inputs": [
        {
          "internalType": "address",
          "name": "account",
          "type": "address"
        }
      ],
      "name": "getBalance",
      "outputs": [
        {
          "internalType": "uint256",
          "name": "",
          "type": "uint256"
        }
      ],
      "stateMutability": "view",
      "type": "function"
    },
    {
      "inputs": [],
      "name": "getTotalSupply",
      "outputs": [
        {
          "internalType": "uint256",
          "name": "",
          "type": "uint256"
        }
      ],
      "stateMutability": "view",
      "type": "function"
    },
    {
      "inputs": [
        {
          "internalType": "address",
          "name": "spender",
          "type": "address"
        },
        {
          "internalType": "uint256",
          "name": "addedValue",
          "type": "uint256"
        }
      ],
      "name": "increaseAllowance",
      "outputs": [
        {
          "internalType": "bool",
          "name": "",
          "type": "bool"
        }
      ],
      "stateMutability": "nonpayable",
      "type": "function"
    },
    {
      "inputs": [
        {
          "internalType": "address",
          "name": "to",
          "type": "address"
        },
        {
          "internalType": "uint256",
          "name": "amount",
          "type": "uint256"
        }
      ],
      "name": "mintToken",
      "outputs": [],
      "stateMutability": "nonpayable",
      "type": "function"
    },
    {
      "inputs": [],
      "name": "name",
      "outputs": [
        {
          "internalType": "string",
          "name": "",
          "type": "string"
        }
      ],
      "stateMutability": "view",
      "type": "function"
    },
    {
      "inputs": [],
      "name": "owner",
      "outputs": [
        {
          "internalType": "address",
          "name": "",
          "type": "address"
        }
      ],
      "stateMutability": "view",
      "type": "function"
    },
    {
      "inputs": [],
      "name": "symbol",
      "outputs": [
        {
          "internalType": "string",
          "name": "",
          "type": "string"
        }
      ],
      "stateMutability": "view",
      "type": "function"
    },
    {
      "inputs": [],
      "name": "totalSupply",
      "outputs": [
        {
          "internalType": "uint256",
          "name": "",
          "type": "uint256"
        }
      ],
      "stateMutability": "view",
      "type": "function"
    },
    {
      "inputs": [
        {
          "internalType": "address",
          "name": "to",
          "type": "address"
        },
        {
          "internalType": "uint256",
          "name": "amount",
          "type": "uint256"
        }
      ],
      "name": "transfer",
      "outputs": [
        {
          "internalType": "bool",
          "name": "",
          "type": "bool"
        }
      ],
      "stateMutability": "nonpayable",
      "type": "function"
    },
    {
      "inputs": [
        {
          "internalType": "address",
          "name": "from",
          "type": "address"
        },
        {
          "internalType": "address",
          "name": "to",
          "type": "address"
        },
        {
          "internalType": "uint256",
          "name": "amount",
          "type": "uint256"
        }
      ],
      "name": "transferFrom",
      "outputs": [
        {
          "internalType": "bool",
          "name": "",
          "type": "bool"
        }
      ],
      "stateMutability": "nonpayable",
      "type": "function"
    },
    {
      "inputs": [
        {
          "internalType": "address",
          "name": "from",
          "type": "address"
        },
        {
          "internalType": "address",
          "name": "to",
          "type": "address"
        },
        {
          "internalType": "uint256",
          "name": "amount",
          "type": "uint256"
        }
      ],
      "name": "transferToken",
      "outputs": [],
      "stateMutability": "nonpayable",
      "type": "function"
    }
  ],
  "bytecode": "0x60806040523480156200001157600080fd5b506040518060400160405280600681526020017f4e6562756c6100000000000000000000000000000000000000000000000000008152506040518060400160405280600381526020017f4e424c000000000000000000000000000000000000000000000000000000000081525081600390816200008f919062000365565b508060049081620000a1919062000365565b50505033600560006101000a81548173ffffffffffffffffffffffffffffffffffffffff021916908373ffffffffffffffffffffffffffffffffffffffff1602179055506200044c565b600081519050919050565b7f4e487b7100000000000000000000000000000000000000000000000000000000600052604160045260246000fd5b7f4e487b7100000000000000000000000000000000000000000000000000000000600052602260045260246000fd5b600060028204905060018216806200016d57607f821691505b60208210810362000183576200018262000125565b5b50919050565b60008190508160005260206000209050919050565b60006020601f8301049050919050565b600082821b905092915050565b600060088302620001ed7fffffffffffffffffffffffffffffffffffffffffffffffffffffffffffffffff82620001ae565b620001f98683620001ae565b95508019841693508086168417925050509392505050565b6000819050919050565b6000819050919050565b600062000246620002406200023a8462000211565b6200021b565b62000211565b9050919050565b6000819050919050565b620002628362000225565b6200027a62000271826200024d565b848454620001bb565b825550505050565b600090565b6200029162000282565b6200029e81848462000257565b505050565b5b81811015620002c657620002ba60008262000287565b600181019050620002a4565b5050565b601f8211156200031557620002df8162000189565b620002ea846200019e565b81016020851015620002fa578190505b6200031262000309856200019e565b830182620002a3565b50505b505050565b600082821c905092915050565b60006200033a600019846008026200031a565b1980831691505092915050565b600062000355838362000327565b9150826002028217905092915050565b6200037082620000eb565b67ffffffffffffffff8111156200038c576200038b620000f6565b5b62000398825462000154565b620003a5828285620002ca565b600060209050601f831160018114620003dd5760008415620003c8578287015190505b620003d4858262000347565b86555062000444565b601f198416620003ed8662000189565b60005b828110156200041757848901518255600182019150602085019450602081019050620003f0565b8683101562000437578489015162000433601f89168262000327565b8355505b6001600288020188555050505b505050505050565b611c78806200045c6000396000f3fe608060405234801561001057600080fd5b506004361061010f5760003560e01c80638da5cb5b116100a2578063c4e41b2211610071578063c4e41b22146102e4578063d1df306c14610302578063dd62ed3e1461031e578063f5537ede1461034e578063f8b2cb4f1461036a57610110565b80638da5cb5b1461024857806395d89b4114610266578063a457c2d714610284578063a9059cbb146102b457610110565b8063313ce567116100de578063313ce567146101ae57806339509351146101cc57806370a08231146101fc57806379c650681461022c57610110565b806306fdde0314610112578063095ea7b31461013057806318160ddd1461016057806323b872dd1461017e57610110565b5b005b61011a61039a565b604051610127919061110f565b60405180910390f35b61014a600480360381019061014591906111ca565b61042c565b6040516101579190611225565b60405180910390f35b61016861044f565b604051610175919061124f565b60405180910390f35b6101986004803603810190610193919061126a565b610459565b6040516101a59190611225565b60405180910390f35b6101b6610488565b6040516101c391906112d9565b60405180910390f35b6101e660048036038101906101e191906111ca565b610491565b6040516101f39190611225565b60405180910390f35b610216600480360381019061021191906112f4565b6104c8565b604051610223919061124f565b60405180910390f35b610246600480360381019061024191906111ca565b610510565b005b6102506105dd565b60405161025d9190611330565b60405180910390f35b61026e610603565b60405161027b919061110f565b60405180910390f35b61029e600480360381019061029991906111ca565b610695565b6040516102ab9190611225565b60405180910390f35b6102ce60048036038101906102c991906111ca565b61070c565b6040516102db9190611225565b60405180910390f35b6102ec61072f565b6040516102f9919061124f565b60405180910390f35b61031c600480360381019061031791906111ca565b61075c565b005b6103386004803603810190610333919061134b565b610788565b604051610345919061124f565b60405180910390f35b6103686004803603810190610363919061126a565b61080f565b005b610384600480360381019061037f91906112f4565b61084f565b604051610391919061124f565b60405180910390f35b6060600380546103a9906113ba565b80601f01602080910402602001604051908101604052809291908181526020018280546103d5906113ba565b80156104225780601f106103f757610100808354040283529160200191610422565b820191906000526020600020905b81548152906001019060200180831161040557829003601f168201915b5050505050905090565b60008061043761087f565b9050610444818585610887565b600191505092915050565b6000600254905090565b60008061046461087f565b9050610471858285610a50565b61047c858585610adc565b60019150509392505050565b60006012905090565b60008061049c61087f565b90506104bd8185856104ae8589610788565b6104b8919061141a565b610887565b600191505092915050565b60008060008373ffffffffffffffffffffffffffffffffffffffff1673ffffffffffffffffffffffffffffffffffffffff168152602001908152602001600020549050919050565b3373ffffffffffffffffffffffffffffffffffffffff16600560009054906101000a900473ffffffffffffffffffffffffffffffffffffffff1673ffffffffffffffffffffffffffffffffffffffff16146105a0576040517f08c379a00000000000000000000000000000000000000000000000000000000081526004016105979061149a565b60405180910390fd5b60006105aa610488565b600a6105b691906115ed565b826105c19190611638565b90506105cd8382610d52565b6105d78382610491565b50505050565b600560009054906101000a900473ffffffffffffffffffffffffffffffffffffffff1681565b606060048054610612906113ba565b80601f016020809104026020016040519081016040528092919081815260200182805461063e906113ba565b801561068b5780601f106106605761010080835404028352916020019161068b565b820191906000526020600020905b81548152906001019060200180831161066e57829003601f168201915b5050505050905090565b6000806106a061087f565b905060006106ae8286610788565b9050838110156106f3576040517f08c379a00000000000000000000000000000000000000000000000000000000081526004016106ea906116ec565b60405180910390fd5b6107008286868403610887565b60019250505092915050565b60008061071761087f565b9050610724818585610adc565b600191505092915050565b6000610739610488565b600a61074591906115ed565b61074d61044f565b610757919061173b565b905090565b61078482610768610488565b600a61077491906115ed565b8361077f9190611638565b610ea8565b5050565b6000600160008473ffffffffffffffffffffffffffffffffffffffff1673ffffffffffffffffffffffffffffffffffffffff16815260200190815260200160002060008373ffffffffffffffffffffffffffffffffffffffff1673ffffffffffffffffffffffffffffffffffffffff16815260200190815260200160002054905092915050565b6000610819610488565b600a61082591906115ed565b826108309190611638565b905061083d848483610459565b506108488382610491565b5050505050565b6000610859610488565b600a61086591906115ed565b61086e836104c8565b610878919061173b565b9050919050565b600033905090565b600073ffffffffffffffffffffffffffffffffffffffff168373ffffffffffffffffffffffffffffffffffffffff16036108f6576040517f08c379a00000000000000000000000000000000000000000000000000000000081526004016108ed906117de565b60405180910390fd5b600073ffffffffffffffffffffffffffffffffffffffff168273ffffffffffffffffffffffffffffffffffffffff1603610965576040517f08c379a000000000000000000000000000000000000000000000000000000000815260040161095c90611870565b60405180910390fd5b80600160008573ffffffffffffffffffffffffffffffffffffffff1673ffffffffffffffffffffffffffffffffffffffff16815260200190815260200160002060008473ffffffffffffffffffffffffffffffffffffffff1673ffffffffffffffffffffffffffffffffffffffff168152602001908152602001600020819055508173ffffffffffffffffffffffffffffffffffffffff168373ffffffffffffffffffffffffffffffffffffffff167f8c5be1e5ebec7d5bd14f71427d1e84f3dd0314c0f7b2291e5b200ac8c7c3b92583604051610a43919061124f565b60405180910390a3505050565b6000610a5c8484610788565b90507fffffffffffffffffffffffffffffffffffffffffffffffffffffffffffffffff8114610ad65781811015610ac8576040517f08c379a0000000000000000000000000000000000000000000000000000000008152600401610abf906118dc565b60405180910390fd5b610ad58484848403610887565b5b50505050565b600073ffffffffffffffffffffffffffffffffffffffff168373ffffffffffffffffffffffffffffffffffffffff1603610b4b576040517f08c379a0000000000000000000000000000000000000000000000000000000008152600401610b429061196e565b60405180910390fd5b600073ffffffffffffffffffffffffffffffffffffffff168273ffffffffffffffffffffffffffffffffffffffff1603610bba576040517f08c379a0000000000000000000000000000000000000000000000000000000008152600401610bb190611a00565b60405180910390fd5b610bc5838383611075565b60008060008573ffffffffffffffffffffffffffffffffffffffff1673ffffffffffffffffffffffffffffffffffffffff16815260200190815260200160002054905081811015610c4b576040517f08c379a0000000000000000000000000000000000000000000000000000000008152600401610c4290611a92565b60405180910390fd5b8181036000808673ffffffffffffffffffffffffffffffffffffffff1673ffffffffffffffffffffffffffffffffffffffff16815260200190815260200160002081905550816000808573ffffffffffffffffffffffffffffffffffffffff1673ffffffffffffffffffffffffffffffffffffffff168152602001908152602001600020600082825401925050819055508273ffffffffffffffffffffffffffffffffffffffff168473ffffffffffffffffffffffffffffffffffffffff167fddf252ad1be2c89b69c2b068fc378daa952ba7f163c4a11628f55a4df523b3ef84604051610d39919061124f565b60405180910390a3610d4c84848461107a565b50505050565b600073ffffffffffffffffffffffffffffffffffffffff168273ffffffffffffffffffffffffffffffffffffffff1603610dc1576040517f08c379a0000000000000000000000000000000000000000000000000000000008152600401610db890611afe565b60405180910390fd5b610dcd60008383611075565b8060026000828254610ddf919061141a565b92505081905550806000808473ffffffffffffffffffffffffffffffffffffffff1673ffffffffffffffffffffffffffffffffffffffff168152602001908152602001600020600082825401925050819055508173ffffffffffffffffffffffffffffffffffffffff16600073ffffffffffffffffffffffffffffffffffffffff167fddf252ad1be2c89b69c2b068fc378daa952ba7f163c4a11628f55a4df523b3ef83604051610e90919061124f565b60405180910390a3610ea46000838361107a565b5050565b600073ffffffffffffffffffffffffffffffffffffffff168273ffffffffffffffffffffffffffffffffffffffff1603610f17576040517f08c379a0000000000000000000000000000000000000000000000000000000008152600401610f0e90611b90565b60405180910390fd5b610f2382600083611075565b60008060008473ffffffffffffffffffffffffffffffffffffffff1673ffffffffffffffffffffffffffffffffffffffff16815260200190815260200160002054905081811015610fa9576040517f08c379a0000000000000000000000000000000000000000000000000000000008152600401610fa090611c22565b60405180910390fd5b8181036000808573ffffffffffffffffffffffffffffffffffffffff1673ffffffffffffffffffffffffffffffffffffffff1681526020019081526020016000208190555081600260008282540392505081905550600073ffffffffffffffffffffffffffffffffffffffff168373ffffffffffffffffffffffffffffffffffffffff167fddf252ad1be2c89b69c2b068fc378daa952ba7f163c4a11628f55a4df523b3ef8460405161105c919061124f565b60405180910390a36110708360008461107a565b505050565b505050565b505050565b600081519050919050565b600082825260208201905092915050565b60005b838110156110b957808201518184015260208101905061109e565b60008484015250505050565b6000601f19601f8301169050919050565b60006110e18261107f565b6110eb818561108a565b93506110fb81856020860161109b565b611104816110c5565b840191505092915050565b6000602082019050818103600083015261112981846110d6565b905092915050565b600080fd5b600073ffffffffffffffffffffffffffffffffffffffff82169050919050565b600061116182611136565b9050919050565b61117181611156565b811461117c57600080fd5b50565b60008135905061118e81611168565b92915050565b6000819050919050565b6111a781611194565b81146111b257600080fd5b50565b6000813590506111c48161119e565b92915050565b600080604083850312156111e1576111e0611131565b5b60006111ef8582860161117f565b9250506020611200858286016111b5565b9150509250929050565b60008115159050919050565b61121f8161120a565b82525050565b600060208201905061123a6000830184611216565b92915050565b61124981611194565b82525050565b60006020820190506112646000830184611240565b92915050565b60008060006060848603121561128357611282611131565b5b60006112918682870161117f565b93505060206112a28682870161117f565b92505060406112b3868287016111b5565b9150509250925092565b600060ff82169050919050565b6112d3816112bd565b82525050565b60006020820190506112ee60008301846112ca565b92915050565b60006020828403121561130a57611309611131565b5b60006113188482850161117f565b91505092915050565b61132a81611156565b82525050565b60006020820190506113456000830184611321565b92915050565b6000806040838503121561136257611361611131565b5b60006113708582860161117f565b92505060206113818582860161117f565b9150509250929050565b7f4e487b7100000000000000000000000000000000000000000000000000000000600052602260045260246000fd5b600060028204905060018216806113d257607f821691505b6020821081036113e5576113e461138b565b5b50919050565b7f4e487b7100000000000000000000000000000000000000000000000000000000600052601160045260246000fd5b600061142582611194565b915061143083611194565b9250828201905080821115611448576114476113eb565b5b92915050565b7f4f6e6c7920746865206f776e65722063616e206d696e742e0000000000000000600082015250565b600061148460188361108a565b915061148f8261144e565b602082019050919050565b600060208201905081810360008301526114b381611477565b9050919050565b60008160011c9050919050565b6000808291508390505b6001851115611511578086048111156114ed576114ec6113eb565b5b60018516156114fc5780820291505b808102905061150a856114ba565b94506114d1565b94509492505050565b60008261152a57600190506115e6565b8161153857600090506115e6565b816001811461154e576002811461155857611587565b60019150506115e6565b60ff84111561156a576115696113eb565b5b8360020a915084821115611581576115806113eb565b5b506115e6565b5060208310610133831016604e8410600b84101617156115bc5782820a9050838111156115b7576115b66113eb565b5b6115e6565b6115c984848460016114c7565b925090508184048111156115e0576115df6113eb565b5b81810290505b9392505050565b60006115f882611194565b9150611603836112bd565b92506116307fffffffffffffffffffffffffffffffffffffffffffffffffffffffffffffffff848461151a565b905092915050565b600061164382611194565b915061164e83611194565b925082820261165c81611194565b91508282048414831517611673576116726113eb565b5b5092915050565b7f45524332303a2064656372656173656420616c6c6f77616e63652062656c6f7760008201527f207a65726f000000000000000000000000000000000000000000000000000000602082015250565b60006116d660258361108a565b91506116e18261167a565b604082019050919050565b60006020820190508181036000830152611705816116c9565b9050919050565b7f4e487b7100000000000000000000000000000000000000000000000000000000600052601260045260246000fd5b600061174682611194565b915061175183611194565b9250826117615761176061170c565b5b828204905092915050565b7f45524332303a20617070726f76652066726f6d20746865207a65726f2061646460008201527f7265737300000000000000000000000000000000000000000000000000000000602082015250565b60006117c860248361108a565b91506117d38261176c565b604082019050919050565b600060208201905081810360008301526117f7816117bb565b9050919050565b7f45524332303a20617070726f766520746f20746865207a65726f20616464726560008201527f7373000000000000000000000000000000000000000000000000000000000000602082015250565b600061185a60228361108a565b9150611865826117fe565b604082019050919050565b600060208201905081810360008301526118898161184d565b9050919050565b7f45524332303a20696e73756666696369656e7420616c6c6f77616e6365000000600082015250565b60006118c6601d8361108a565b91506118d182611890565b602082019050919050565b600060208201905081810360008301526118f5816118b9565b9050919050565b7f45524332303a207472616e736665722066726f6d20746865207a65726f20616460008201527f6472657373000000000000000000000000000000000000000000000000000000602082015250565b600061195860258361108a565b9150611963826118fc565b604082019050919050565b600060208201905081810360008301526119878161194b565b9050919050565b7f45524332303a207472616e7366657220746f20746865207a65726f206164647260008201527f6573730000000000000000000000000000000000000000000000000000000000602082015250565b60006119ea60238361108a565b91506119f58261198e565b604082019050919050565b60006020820190508181036000830152611a19816119dd565b9050919050565b7f45524332303a207472616e7366657220616d6f756e742065786365656473206260008201527f616c616e63650000000000000000000000000000000000000000000000000000602082015250565b6000611a7c60268361108a565b9150611a8782611a20565b604082019050919050565b60006020820190508181036000830152611aab81611a6f565b9050919050565b7f45524332303a206d696e7420746f20746865207a65726f206164647265737300600082015250565b6000611ae8601f8361108a565b9150611af382611ab2565b602082019050919050565b60006020820190508181036000830152611b1781611adb565b9050919050565b7f45524332303a206275726e2066726f6d20746865207a65726f2061646472657360008201527f7300000000000000000000000000000000000000000000000000000000000000602082015250565b6000611b7a60218361108a565b9150611b8582611b1e565b604082019050919050565b60006020820190508181036000830152611ba981611b6d565b9050919050565b7f45524332303a206275726e20616d6f756e7420657863656564732062616c616e60008201527f6365000000000000000000000000000000000000000000000000000000000000602082015250565b6000611c0c60228361108a565b9150611c1782611bb0565b604082019050919050565b60006020820190508181036000830152611c3b81611bff565b905091905056fea26469706673582212201bc4d9c32382ecb41b3529b782e0b5749cbff6f391fbc373715da5951ca7c32664736f6c63430008120033",
  "linkReferences": {},
  "deployedLinkReferences": {}
}